:020000040800F2
:1000000000040020C7020008D5020008D70200083B
:10001000D9020008DB020008DD0200080000000031
:10002000000000000000000000000000DF020008E7
:10003000E102000800000000E3020008E5020008F9
:10004000E7020008E7020008E7020008E7020008EC
:10005000E7020008E7020008E7020008E7020008DC
:10006000E7020008E7020008E7020008E7020008CC
:10007000E7020008E7020008E7020008E7020008BC
:10008000E7020008E7020008E7020008E7020008AC
:10009000E7020008E7020008E7020008E70200089C
:1000A000E7020008E7020008E7020008E70200088C
:1000B000E702000861230008C7220008E7020008E1
:1000C000E7020008E7020008E7020008E70200086C
:1000D000E702000873150008DB0B00084917000849
:1000E000E7020008E7020008E7020008E70200084C
:1000F000E7020008E7020008E7020008E70200083C
:10010000E7020008E7020008E7020008E70200082B
:10011000591F0008E7020008E7020008E70200088C
:10012000E7020008E7020008E7020008E70200080B
:1001300000F002F800F0B0F80AA090E8000C824449
:100140008344AAF10107DA4501D100F0A5F8AFF226
:10015000090EBAE80F0013F0010F18BFFB1A43F0A5
:1001600001031847684A0000884A00000A444FF01B
:10017000000C10F8013B13F0070408BF10F8014B06
:100180001D1108BF10F8015B641E05D010F8016B4B
:10019000641E01F8016BF9D113F0080F1EBF10F8AF
:1001A000014BAD1C0C1B09D16D1E58BF01F801CBD2
:1001B000FAD505E014F8016B01F8016B6D1EF9D555
:1001C0009142D6D37047000000230024002500266A
:1001D000103A28BF78C1FBD8520728BF30C148BFAA
:1001E0000B6070476E2902F01384702902F05C8561
:1001F000662904F07C84652904F07984672904F079
:1002000076846129AFF3008003681B0A28BF41F0A0
:100210008001692902F0C083642902F0BD83752939
:1002200002F0BA836F2902F0E784782902F028856A
:10023000E92902F07F84E42902F07C84F52902F0A8
:100240007984EF2902F0E484F82902F02785036815
:10025000DB0928BF41F08001632903F0B2807329D4
:1002600003F0B780E32903F0C280F32903F0C780CD
:10027000002070471FB503F013F90400002000218F
:1002800003F002FE401C60600020002103F0E6FD48
:10029000E0601FBD10B510BD03F0D5F81146FFF7A3
:1002A000E9FF00F0A4F803F0B1F903B4FFF7F2FF9F
:1002B00003BC03F0F5F9000030BF72B662B680F3FC
:1002C0000888704770470B4880470B4981F30888BE
:1002D0000A480047FEE7FEE7FEE7FEE7FEE7FEE727
:1002E000FEE7FEE7FEE7FEE705480649044A064B3F
:1002F00070470000C50200085024002031010008AA
:10030000501C002050240020501C002070B50020FC
:1003100002F076F80546002406E0601C02F070F852
:1003200065490855601CC4B2AC42F6DB282002F0D7
:1003300067F80546002407E004F1290002F060F8A0
:100340005E490855601CC4B2AC42F5DB502002F097
:1003500057F80546002407E004F1510002F050F878
:1003600057490855601CC4B2AC42F5DB782002F056
:1003700047F80546002407E004F1790002F040F850
:1003800050490855601CC4B2AC42F5DBA02002F015
:1003900037F80546002407E004F1A10002F030F828
:1003A00049490855601CC4B2AC42F5DBC82002F0D4
:1003B00027F80546002407E004F1C90002F020F800
:1003C00042490855601CC4B2AC42F5DBF02002F093
:1003D00017F80546002407E004F1F10002F010F8D8
:1003E0003B490855601CC4B2AC42F5DB70BD00BF90
:1003F000092000F0EFF9482000F07EF84FF4614149
:10040000482001F0E5F84FF46141242000F01EFC83
:100410004FF4E131242001F0F9FC41F61F4142F292
:100420000F7001F0B8FF4FF41651242001F0DAFEEE
:1004300001F0E2FF4FF4FE73264A2749274802F0F5
:10044000D5F900F023FA00F057FA00F071FA2448C9
:1004500004680568642000F085F8FFF757FF642002
:1004600000F080F81FA000F056FD642000F07AF83C
:10047000022001F0C9F91EE000F070FD01F0A7FDB7
:1004800001F0E0FA281B14D01548046817480068EA
:1004900008B9012000E00020144908601448D0F891
:1004A000940108B9012000E000201249086001F021
:1004B00046FC0B480568DFE79B0200205818002027
:1004C0006C180020801800208A1800209418002042
:1004D0009E180020A8030020044400408000024031
:1004E000D00200207E30313031000000B4012242C1
:1004F00000002342940123424FF0E021096921F0DA
:1005000004014FF0E0221161C21700EB5272D210C9
:10051000224B1A701946097801EB4102C2EBC11156
:100520004FF6FF7202EAC1011D4A11807047014671
:100530001A4A12784A434FF0E0235A6100229A6126
:1005400001221A6100BF4FF0E022106910F0010F84
:1005500002D010F4803FF6D000224FF0E0231A6161
:100560009A61704701460E4A12884A434FF0E023D1
:100570005A6100229A6101221A6100BF4FF0E02205
:10058000106910F0010F02D010F4803FF6D0002265
:100590004FF0E0231A619A617047000000000020CC
:1005A00002000020AC4A0A400243AC4B1A6070477C
:1005B0000146072323EA01021202A84B1B1D1868FB
:1005C0004FF6FF031840A64B18431043A34B1B1DC7
:1005D000186070472DE9F0478046894614461D464D
:1005E0002046E11704EB91714FEAA10AE11704EBF1
:1005F00091718910A4EB8101CFB2042000EBC700F8
:10060000C7B22846FFF7D4FFC5F1040008FA00F688
:100610000F20284100EA0900064306F00F06202CAF
:100620000CDA904800684FF0010101FA04F140EA49
:1006300001004FF0E021C1F800010DE08A48006898
:10064000A4F120014FF0010202FA01F240EA020097
:100650004FF0E021C1F80401844850F82A0006FA5E
:1006600007F140EA0100814941F82A00BDE8F0871E
:1006700070B504460B46CE1701EB9676B010CE1738
:1006800001EB9676B610A1EB8606B606350E784BD2
:100690009B6943F00103764EB3614FEAB63353F8DA
:1006A00020300F26AE40B343724E46F8203033461A
:1006B00053F8203004FA05F633436E4E46F82030E6
:1006C0006D4B1E6801238B401E436B4B1E6012F066
:1006D000010F08D0684B0C331B6801268E40334352
:1006E000654E0C36336012F0020F08D0624B0833AF
:1006F0001B6801268E4033435F4E0836336070BD61
:1007000000B500205A490861C860142048610020E3
:100710008861C8610846006840F00100086008462A
:1007200040685649084052494860084600685449A4
:1007300008404F4908600846006820F4802008609F
:100740000846406820F4FE004860002088600021D0
:100750004FF00060FFF726FF00BD10B53F4808309E
:10076000006840F004003D49083108604048C06915
:1007700040F080503E49C8614248406840F4807073
:10078000404948600846006840F004000860084698
:10079000006840F002000860FFF78EFD10BD304891
:1007A000001D2E49091D0860704701464906304A60
:1007B000926942F001022E4B9A612E4A083A526821
:1007C00022F0E0622B4B083B5A601A4652680A43FB
:1007D0005A60704730B504460025FFF791FF244862
:1007E000006840F480302249086000BF204800685B
:1007F000400CFBD04FF480601D494860A01EC4B27D
:100800000846406840EA844048600846406840F432
:10081000803048601C48006840F032001A49086087
:100820001348006840F080701149086000BF10480C
:100830000068400EFBD00E48406840F002000C49B2
:10084000486005E00A484068C0F3870505F00305E5
:10085000022DF7D130BD000080FFFF1F08ED00E042
:100860000000FA0500E100E004E100E000E400E03F
:100870000010024008000140000401400000FFF8A1
:10088000FFFFF6FE0070004000200240174880691C
:1008900040F01000154988610846806940F040002A
:1008A00088611348406820F4700011494860084688
:1008B000406840F4401048600846C06840F400506A
:1008C000C8600C48006820F470000A4908600846B7
:1008D000006840F44010086006480C30006840F0A2
:1008E000200004490C3108607047000000100240ED
:1008F00000100140001801400A48806940F00800DB
:10090000084988610848006820F00F00064908601F
:100910000846006840F003000860002003490860B2
:100920007047000000100240040C0140A0812142E9
:100930003748806940F0040035498861084680697D
:1009400040F0400088613348006820F00F003149D2
:1009500008600846006840F0080008602E480068FB
:100960002E4908402C490860084600682C49084375
:100970002949086028480C30006840F01C002649CE
:100980000C310860704710B5044614B101202549A8
:1009900008702448007838B32348006848B12348D9
:1009A000006830B12248006818B122480068012868
:1009B0001AD10A20FFF7D6FD00201A4908701A48FC
:1009C000006808B9012010BD1848006808B9022065
:1009D000F9E71748006808B90320F4E715480068EC
:1009E000012813D10420EEE70F48006801280DD13B
:1009F0000E480068012809D10D480068012805D17A
:100A00000C48006810B90120064908700020DAE798
:100A1000001002400008014000180140FF00F0FFF4
:100A20000088080004000020100123420C0123422A
:100A30000801234200012142BC49088000BFBB4994
:100A4000091F098811F0400FF9D0704710B503460F
:100A50000C46002204E0985CFFF7EEFF501CC2B287
:100A6000A242F8DB10BD0FB438B505A80090B0481D
:100A7000009A049901F0F8FE00200090AC4801F0C3
:100A800005FFC5B200240CE0A948005DA749088015
:100A900000BFA648001F008810F0400FF9D0601C6E
:100AA000C4B2AC42F0DB38BC5DF814FB2DE9F04772
:100AB00000240025A0469F48006803F031FE05464B
:100AC000284603F069FE07469A480168384603F055
:100AD0008FFF0646984903F0BFFE804600BF05E041
:100AE0009649085DFFF7A8FF601C84B2B4F5EE7F5D
:100AF000F6DD93A0FFF7B7FF984999A0FFF7B3FF82
:100B000098A0FFF7B0FF9E4995A0FFF7ACFF9DA00E
:100B1000FFF7A9FFA44992A0FFF7A5FFA3A0FFF745
:100B2000A2FFA9480168A9A0FFF79DFFA8A0FFF7B1
:100B30009AFFAE498AA0FFF796FFADA0FFF793FF9B
:100B4000B44987A0FFF78FFFB3A0FFF78CFFBB4925
:100B500083A0FFF788FFBAA0FFF785FFBF480068B2
:100B600003F082FC064632460B46BDA0FFF77BFF32
:100B7000BDA0FFF778FFC3480168B848006803F0DC
:100B800041FF814603F070FC064632460B46B4A096
:100B9000FFF769FFBCA0FFF766FFC64970A0FFF72B
:100BA00062FFC5496EA0FFF75EFFC4A0FFF75BFFC1
:100BB000294686A0FFF757FFC1A0FFF754FF404624
:100BC00003F0AEFD0646314680A0FFF74CFF0E2134
:100BD000BC48FFF73BFFBDE8F0875449091F09886F
:100BE00011F0200F31D051490988C8B2B64909889F
:100BF00011F4004F29D1B449098811F4804F1CD059
:100C00000D2806D1B049098841F40041AE4A11804F
:100C10001BE0AD490988C1F30D01AC4A5054AA4903
:100C20000988491CA84A118011460988C1F30D01A1
:100C3000C7290ADD0021118007E07E2805D1A249DD
:100C4000098841F48041A04A118070472DE9F05F86
:100C500005460E46300103F0B7FD81469C4905FB71
:100C600001F003F0B1FD8246494603F097FC0746C8
:100C7000384603F071FD84B2204603F0A5FD83469B
:100C8000394603F0B5FE82464FF0834103F0E4FDA0
:100C9000814603F061FD80464FF6FF7000EA0414C0
:100CA00004EB080084B28B48806940F00400894955
:100CB00088610846C06940F40030C8618648006811
:100CC00020F47F40844908600846006840F40B40E7
:100CD00008608048006940F400307E490861084699
:100CE000006920F4003008611048001D0480001DD8
:100CF000008842F20C0108430C490831088008467C
:100D0000008840F4807008800846008840F0200089
:100D10000880802005491031088002232622032103
:100D20000846FFF757FCBDE8F09F00000444004070
:100D3000A8030020CC020020000020410600002073
:100D400054455854203335302C3233302C22342241
:100D50002C302C312C312C2200000000581800209F
:100D600025730000220D0A54455854203231302C8E
:100D70003330352C2233222C302C312C312C2200D4
:100D80006C180020220D0A54455854203237302C5C
:100D90003335352C22464F4E54303031222C302CF6
:100DA000332C332C220000009E180020220D0A5400
:100DB000455854203239302C3436302C2234222CF1
:100DC000302C312C312C2200AC0200202564000094
:100DD000220D0A54455854203230302C3533302CF3
:100DE0002234222C302C312C312C2200A102002064
:100DF000220D0A54455854203538302C3237382CBF
:100E000022464F4E54303031222C302C332C332C90
:100E10002200000080180020220D0A54455854205A
:100E20003537352C3335382C22464F4E543030313F
:100E3000222C302C332C332C220000008A18002066
:100E4000220D0A54455854203631302C3436302C7B
:100E50002234222C302C312C312C2200C8020020CC
:100E6000252E316600000000220D0A5445585420FA
:100E70003631302C3532302C2234222C302C312C8F
:100E8000322C2200B8020020220D0A424152434F68
:100E90004445203131352C3632302C2245414E31FB
:100EA0003238222C39362C312C302C332C372C2252
:100EB000000000009B020020A80700205A0000004C
:100EC0004B000000E4010020F4010020E0020020BB
:100ED00040420F000010024000080140F94908801C
:100EE00000BFF849091F098811F0400FF9D0704779
:100EF00010B5024600200BE0135CF24C238000BFCB
:100F0000F04B1B1F1B8813F0400FF9D0431CD8B2C5
:100F10008842F1DB10BD0FB438B505A80090EA484F
:100F2000009A049901F0A0FC00200090E64801F02E
:100F3000ADFCC5B200240CE0E348005DE149088047
:100F400000BFE048001F008810F0400FF9D0601C7F
:100F5000C4B2AC42F0DB38BC5DF814FB2DE9F04FB5
:100F600087B000260020039004900590D7480088A1
:100F700010F4004F7ED0D5480088C0F30D05D4484A
:100F80004078322877D1D248C07831281FD1D04854
:100F900000792A281AD10821CE4800F095FB0024B8
:100FA00005E0CB4A211D505C00F0A1FB641C681FCA
:100FB000A042F6DCFF2000F09AFBFC2000F097FB3B
:100FC000FF2000F094FBFF2000F091FBC9E2C04835
:100FD000C0783228FAD1002407E0BD48005D2A28F5
:100FE00002D103A98C55761C641CAC42F5DB0024AD
:100FF00003E00020B8490855641C052CF9DB0024E7
:1010000003E00020B5490855641C132CF9DB0024CB
:1010100003E00020B2490855641C132CF9DB0024BE
:1010200003E00020AF490855641C092CF9DB0024BB
:1010300003E00020AC490855641C092CF9DB0024AE
:1010400003E00020A9490855641C092CF9DB0024A1
:1010500003E00020A6490855641C092CF9DB9DF823
:101060000D009DF80C20801A401EC1B2002001F036
:10107000F3F901E078E20DE1002412E09DF80C00A4
:101080002044401C9249085C934908559DF80C2067
:101090002244521C8E4B995C621C90B201F0DCF928
:1010A000641C9DF80D009DF80C10401A401EA042D3
:1010B000E4DC9DF80E009DF80D20801A401EC1B2A0
:1010C000282001F0C9F9002413E09DF80D00204408
:1010D000401C7F49085C814908559DF80D20224439
:1010E000521C7B4B995C04F1290290B201F0B4F9D7
:1010F000641C9DF80E009DF80D10401A401EA04281
:10110000E3DC9DF80F009DF80E20801A401EC1B24E
:10111000502001F0A1F9002413E09DF80E002044B6
:10112000401C6B49085C6E4908559DF80E2022440E
:10113000521C674B995C04F1510290B201F08CF99A
:10114000641C9DF80F009DF80E10401A401EA0422E
:10115000E3DC9DF810009DF80F20801A401EC1B2FC
:10116000782001F079F9002413E09DF80F00204465
:10117000401C5749085C5B4908559DF80F202244E4
:10118000521C534B995C04F1790290B201F064F95E
:10119000641C9DF810009DF80F10401A401EA042DC
:1011A000E3DC9DF811009DF81020801A401EC1B2AA
:1011B000A02001F051F9002413E09DF81000204414
:1011C000401C4349085C484908559DF810202244BA
:1011D000521C3F4B995C04F1A10290B201F03CF922
:1011E000641C9DF811009DF81010401A401EA0428A
:1011F000E3DC9DF812009DF81120801A401EC1B258
:10120000C82001F029F9002413E09DF811002044C2
:10121000401C2F49085C354908559DF8112022448F
:10122000521C2B4B995C04F1C90290B201F014F9E5
:10123000641C9DF812009DF81110401A401EA04237
:10124000E3DC9DF813009DF81220801A401EC1B205
:10125000F02001F001F9002413E09DF81200204471
:10126000401C1B49085C224908559DF81220224465
:10127000521C174B995C04F1F10290B201F0ECF8AA
:10128000641C9DF813009DF81210401A401EA042E5
:10129000E3DC66E10E484078332864D10C48C0781E
:1012A00032282BD1002405E00949201D085C114992
:1012B0000855641C681FA042F6DC01200E49087026
:1012C0004FE100000438014090170020F801002091
:1012D000BA070020010200209B02002058180020BD
:1012E0006C180020801800208A1800209418002014
:1012F0009E180020A8070020FA010020EA48C078C4
:101300003128C6D0E848C0783328C2D1EE2000F09A
:10131000EEF9B12000F0EBF9102000F0E8F9002020
:1013200000F0E5F9002000F0E2F9002000F0DFF91C
:10133000212000F0DCF9002405E0DB4A211D505C8F
:1013400000F0D5F9641C681FA042F6DCFF2000F015
:10135000CEF9FC2000F0CBF9FF2000F0C8F9FF2007
:1013600000F0C5F9FDE0D0484078312891D1CE4851
:10137000C078312870D1CC484079CC490870CA482F
:1013800080794870C848C079C870C748007A087129
:10139000C548407A8871C448807AC871C24880794B
:1013A0003038C149497900EB0110C7B2BE48007A14
:1013B0003038BD49C97900EB011000F0FF08BA4888
:1013C000807A3038B849497A00EB011000F0FF0903
:1013D000B548007B3038B449C97A00EB011000F001
:1013E000FF0AB148807B3038AF49497B00EB0110E0
:1013F00000F0FF0BAC48007C3038AB49C97B00EBF8
:101400000110C0B20690EE2000F071F9812000F0CA
:101410006EF9069800F06BF9584600F068F95046EE
:1014200000F065F9484600F062F9002000F05FF92D
:10143000404600F05CF9384600F059F9FF2000F012
:1014400056F9FC2000F053F9FF2000F050F9FF207E
:1014500000F04DF985E0FFE79348C07832287CD151
:10146000002002900190009000219148017000241A
:101470000CE08D48005D2A2807D1E1B201980DF8F3
:1014800000100198401CC0B20190641CAC42F0DB1B
:10149000EE2000F02CF9B12000F029F9102000F026
:1014A00026F9002000F023F9002000F020F90020A8
:1014B00000F01DF9282000F01AF9002408E09DF83A
:1014C00000102144491C784A505C00F010F9641C5B
:1014D0009DF801009DF80010401A401EA042EEDC6D
:1014E000FF2000F004F9FC2000F001F9FF2000F0DB
:1014F000FEF8FF2000F0FBF8EE2000F0F8F8B12035
:1015000000F0F5F8102000F0F2F8002000F0EFF8FD
:10151000002000F0ECF8002000F0E9F82A2000F0AC
:10152000E6F8002408E09DF801102144491C5E4AB9
:10153000505C00F0DCF8641C9DF80100281A801E45
:10154000A042F0DCFF2000F0D2F8FC2000F0CFF841
:10155000FF2000F0CCF8FF2000E002E000F0C7F828
:1015600000BF00205349088007B0BDE8F08F7047E6
:1015700070475149098811F0200F28D04E49091DA4
:101580000988C8B24B49098811F4004F1FD1494955
:10159000098811F4804F12D046490988C1F30D0122
:1015A000414A505443490988491C424A1180232822
:1015B0000DD11146098841F40041118007E07E28D1
:1015C00005D13C49098841F480413A4A118070476D
:1015D0002DE9F05F05460E46300103F0F5F881462F
:1015E000364905FB01F003F0EFF88246494602F068
:1015F000D5FF0746384603F0AFF884B2204603F023
:10160000E3F88346394603F0F3F982464FF083410D
:1016100003F022F9814603F09FF880464FF6FF70F1
:1016200000EA041404EB080084B22548806940F005
:101630000400234988610846806940F4804088613D
:101640002048006820F47F601E4908600846006852
:1016500040F40B6008601A48C06840F480401849A4
:10166000C8600846C06820F48040C860124808304E
:101670000480001D008842F20C0108430E490C3121
:1016800008800846008840F480700880084600887A
:1016900040F0200008800223252203210846FEF79F
:1016A00099FFBDE8F09F0000BA070020A1020020CA
:1016B00000020020F80100200038014040420F00E5
:1016C000001002400408014010B5024600200BE063
:1016D000135CF74C238000BFF54B1B1F1B8813F0D6
:1016E000400FF9D0431CD8B28842F1DB10BDF0495D
:1016F000088000BFEE49091F098811F0400FF9D09A
:1017000070470FB438B505A80090EA48009A0499CC
:1017100001F0AAF800200090E64801F0B7F8C5B241
:1017200000240CE0E348005DE149088000BFE04888
:10173000001F008810F0400FF9D0601CC4B2AC420A
:10174000F0DB38BC5DF814FBD949091F098811F09A
:10175000200F31D0D6490988C8B2D749098811F479
:10176000004F29D1D449098811F4804F1CD0FF289B
:1017700006D1D149098841F40041CF4A11801BE0CC
:10178000CD490988C1F30D01CC4A5054CA49098892
:10179000491CC94A118011460988C1F30D01C729A6
:1017A0000ADD0021118007E0EE2805D1C249098831
:1017B00041F48041C04A1180704710B5C0A0FFF7C6
:1017C000AAFB10BD70B506460C461546EE20FFF785
:1017D0008EFFB120FFF78BFF1020FFF788FF00205E
:1017E000FFF785FF3046FFF782FF0020FFF77FFFFE
:1017F0002046FFF77CFF2946B3A0FFF782FF0421B4
:10180000B248FFF761FF70BD10B50446EE20FFF748
:101810006EFFB120FFF76BFF0020FFF768FF00208D
:10182000FFF765FF2046FFF762FF0421A748FFF797
:101830004BFF10BD10B50020FFF7E6FFA4A0FFF797
:101840006AFB0020A4490870A44A0A21FFF7BAFFE6
:10185000A34A0B210020FFF7B5FFA24A0C2100206C
:10186000FFF7B0FFA04A0D210020FFF7ABFF9F4A12
:101870001E210020FFF7A6FF9D4A20210020FFF730
:10188000A1FFFFF79AFF10BD10B59A48007809280C
:101890000FDA0020FFF7B8FF96480078401C954902
:1018A00008700120FFF7B0FF9248017892A0FFF77F
:1018B00032FB10BD10B58F48007800280FDD8D4831
:1018C0000078401E8B4908700020FFF79DFF012023
:1018D000FFF79AFF8748017887A0FFF71CFB10BD30
:1018E00070B504460D460C2D0FD185A0FFF713FBF4
:1018F000E079FFF7F3FA207AFFF7F0FA607AFFF762
:10190000EDFAA07AFFF7EAFA13E00D2D11D17CA0D1
:10191000FFF701FBE079FFF7E1FA207AFFF7DEFA43
:10192000607AFFF7DBFAA07AFFF7D8FAE07AFFF7E0
:10193000D5FA70BD10B50120FFF766FF72A0FFF762
:10194000EAFA00206B49087001206349087010BD55
:1019500010B56F480078012830D1EE20FFF7C7FEA0
:10196000B120FFF7C4FE1020FFF7C1FE0020FFF7F3
:10197000BEFE0020FFF7BBFE0020FFF7B8FE2120CF
:10198000FFF7B5FEFF20FFF7B2FEFC20FFF7AFFE2A
:10199000FF20FFF7ACFEFF20FFF7A9FE002404E0C4
:1019A00000205C490855601CC4B2092CF8DB5AA021
:1019B000FFF7B1FA01205A49087000BF10BD10B5F9
:1019C000584959A0FFF7A7FA6420FEF7CBFDFFF7AF
:1019D000F4FE10BD2DE9F04104460D462846FFF700
:1019E0007DFA0B2D15DA092D02D00A2D10D104E055
:1019F000E07930384F4908600AE0207A3038E179E0
:101A0000303901EB810100EB41004A49086000BF19
:101A100000BF4848006802F0BFFE0746464801681C
:101A2000384602F019FF064644480168304602F085
:101A300047FD434908603F48016842A0FFF76BFA41
:101A4000BDE8F0812DE9F0471B48008810F4004FF5
:101A50002DD0194805781948407811280AD117481F
:101A6000C07818BB15484079122804D1294613487C
:101A7000FFF7B0FF98E011484079252802D1FFF721
:101A80009EFF91E00D484079182804D1FFF760FFD0
:101A9000FFF793FE88E009484079132805D11C48D8
:101AA0000078012801D1FFF745FF7DE04CE07EE0A2
:101AB0000448004098190020C0020020D0180020DF
:101AC0007E30333033000000257300000D0200200B
:101AD0007E30313031000000BC0200205818002058
:101AE0006C180020801800208A180020941800200C
:101AF0009E180020AA0200207E303230312564007A
:101B00007E303230322A00007E30323031300000F8
:101B1000BE020020A80700207E30333032000000D3
:101B20000C0200209B0200207E30333034257323CA
:101B300000000000AC020020B4020020B00200202F
:101B4000B802002025640000E548C07801281DD1B6
:101B5000E3484079042804D12946E148FFF7C0FE54
:101B600022E0DF484079062802D1FFF763FE1BE040
:101B7000DB484079092802D1FFF79CFE14E0D848E1
:101B800040790A2810D1FFF77FFE0DE0D448C078D5
:101B9000022809D1D2484079032805D1D1480078DC
:101BA000012801D1FFF746FE0020CF490880CF4829
:101BB0000078012875D1CE480078012871D100261F
:101BC0004FF00009CB48006802F0AAFD06463046F7
:101BD00002F0E2FD8046C7480168404602F008FF77
:101BE0000746C54902F038FE8146C449AFF22810C5
:101BF000FFF791F92A20FFF771F9C149AFF23810C8
:101C0000FFF789F92A20FFF769F9BE48006802F05A
:101C10002BFC07463A460B46BBA0FFF77CF92A206F
:101C2000FFF75CF9B348006802F01EFC07463A462D
:101C30000B46B5A0FFF76FF92A20FFF74FF9B0491F
:101C4000AFF27C10FFF767F9B149AFF28410FFF7EC
:101C500062F9B0A0FFF75FF93146AFF21810FFF755
:101C60005AF9ADA0FFF757F9484602F059FD07466B
:101C70003946AFF23010FFF74EF9FEF717FF002498
:101C800005E0A648005DA2490855601CC4B2092CB5
:101C9000F7DB00209649087094490870FFF78DFD26
:101CA00000BFBDE8F0872DE9F04180460C4615469F
:101CB000EE20FFF71CFDB120FFF719FD1020FFF704
:101CC00016FD0020FFF713FD4046FFF710FD002032
:101CD000FFF70DFD2046FFF70AFD284602F0C4FB82
:101CE000064632460B4688A0FFF70BFD04218C48C0
:101CF000FFF7EAFCBDE8F08170B506460C461546D4
:101D0000EE20FFF7F4FCB120FFF7F1FC1020FFF705
:101D1000EEFC0020FFF7EBFC3046FFF7E8FC00206C
:101D2000FFF7E5FC2046FFF7E2FC2946AFF2EC1096
:101D3000FFF7E7FC04217A48FFF7C6FC70BD10B539
:101D4000784801686F48006802F05CFE69490860E5
:101D500000216848006802F04BFD02D2002065496E
:101D600008607148122102680020FFF7C5FF65482E
:101D7000102102680020FFF796FF5E4811210268DB
:101D80000020FFF790FF624A0F210020FFF71AFDA5
:101D9000664A0E210020FFF715FD654800780328EC
:101DA0000BDD13216348FFF78FFC13216248FFF717
:101DB0008BFC00204B4908700AE013215F48FFF7B5
:101DC00083FC13215E48FFF77FFC01204549087022
:101DD00057480078401C5649087010BD01205949E9
:101DE0000870704700B5EE20FFF781FC0120FFF777
:101DF0007EFCFF20FFF77BFCFF20FFF778FCFC2038
:101E0000FFF775FCFF20FFF772FC00BD2DE9F05FC6
:101E100005460E46300102F0D7FC81464A4905FBD3
:101E200001F002F0D1FC8246494602F0B7FB0746BA
:101E3000384602F091FC84B2204602F0C5FC83468D
:101E4000394602F0D5FD82464FF0834102F004FD91
:101E5000814602F081FC80464FF6FF7000EA0414D0
:101E600004EB080084B23948806940F00800374923
:101E700088610846C06940F48020C8613448006821
:101E800020F47F40324908600846006840F40B4067
:101E900008602E48006940F480202C4908610846FB
:101EA000006920F4802008612A480480001D008811
:101EB00042F20C0108432749091D088008460088A2
:101EC00040F4807008800846008840F020000880B8
:101ED0000223272203210846FEF77CFBBDE8F09F82
:101EE000D0180020BE020020C00200200C020020FA
:101EF000FA010020CC02002000002041180200203E
:101F00009B020020C8020020252E31660000000040
:101F1000A80700205A0000004B00000046020020E5
:101F20000D020020B8020020AC020020A102002017
:101F3000000200204F0200207502002062020020F3
:101F400088020020BD02002040420F000010024025
:101F5000040C014008480040F649098811F0200FA0
:101F600034D0F449091D0988C8B2F349098811F42D
:101F7000004F2BD1F049098811F4804F1ED0202842
:101F800024D06B2806D1EC49098841F40041EA4A83
:101F900011801BE0E8490988C1F30D01E74A50545C
:101FA000E5490988491CE44A118011460988C1F3B2
:101FB0000D0108290ADD0021118007E0202805D144
:101FC000DD49098841F48041DB4A118070472DE9E1
:101FD000F04F87B00024A346D74890F800A00088AF
:101FE00010F4004F72D0A1460BE0D44810F809005D
:101FF0002E2800D107E0601CC4B209F1010000F0F6
:10200000FF09D145F1DB00BFAAEB0400401E00F040
:10201000FF0B012C04D0022C0BD0032C30D117E085
:10202000C6490978A1F1300002F0B6FBC449086046
:1020300026E0C24949783039C04A1278303A02EB7A
:10204000820201EB420002F0A7FBBD49086017E0E5
:10205000BA4989783039B94A5278303A02EB82026B
:1020600001EB4202B5490978303901EBC10303EBBA
:10207000011102EB810002F08FFBB149086000BF43
:1020800000BFBBF1010F03D0BBF1020F68D11EE00E
:10209000AA4A611C515CA1F1300001F0E5FF07463E
:1020A000A84AA94B01F0F8FFCDE90201A448006855
:1020B00002F0DAF90546DDE9022301F02DFFCDE952
:1020C000040101F0F7FE9E49086049E04CE09B499D
:1020D000A01C085C303805281DDA0A46611C515CDA
:1020E000A1F1300001F0C0FF964A974BCDE9020103
:1020F00001F0D2FFCDE904019148006802F0B4F983
:102100000746DDE9042301F007FF054601F0D2FE92
:102110008B49086023E0894A611C515CA1F13000C1
:1021200001F0A2FF0746874A874B01F0B5FF05463D
:102130000E468348006802F097F92A463346CDE9F7
:10214000000101F0E9FE7F4A7F4BCDE9020101F079
:10215000E3FECDE9040101F0ADFE7949086000BF5E
:1021600000BF00207449088007B0BDE8F08F58B167
:102170000021764A118075492439098841F001010E
:10218000724A243A118007E070492439098821F005
:1021900001016E4A243A1180704770B505460C461D
:1021A0006B48C06940F004006949C861674808305D
:1021B0000580001F048065481838008840F0010041
:1021C00062491839088061482438008840F00100CD
:1021D0005E492439088002231E2203210120FEF7D4
:1021E000F9F970BD70B505460C465948806940F054
:1021F0001000574988615748406820F47F4055498E
:1022000048600846406840F40B4048605048C06948
:1022100040F400204E49C8610846006940F400209F
:1022200008610846006920F4002008614A486843B4
:10223000B0FBF4F03F4908310880081D008842F2E5
:102240000C0108433B490C3108800846008840F4E3
:10225000807008800846008840F020000880022333
:10226000342203210846FEF7B5F941F61F416320E9
:10227000FFF793FF002030490880FFF778FF70BD1B
:102280000FB438B505A800903448009A049900F0BE
:10229000EBFA00200090314800F0F8FAC5B20024B3
:1022A0000CE02E48005D2349091D088000BF21482D
:1022B000008810F0400FFAD0601CC4B2AC42F0DBD2
:1022C00038BC5DF814FB00B520481438008810F0C5
:1022D000010F10D01848008840F4004016490880CB
:1022E0001A481438008820F0010018491439088071
:1022F0000020FFF73CFF00BD10B5024600200CE0B7
:1023000032F810300B4C241D238000BF094B1B8872
:1023100013F0400FFAD0431CD8B28842F0DB10BD56
:102320000449091D088000BF0249098811F0400FC7
:10233000FAD07047004C0040C4020020281B002047
:10234000C80200209A9999999999B93F24080040A8
:10235000001002400010014040420F00601A0020AF
:102360002048008810F0010F0ED01F480068401C64
:102370001D4908601D480068401C1C4908601C4835
:102380000068401C1A4908601648008820F00100C7
:1023900014490880704770B505460C461548C06959
:1023A00040F002001349C8610E481C300580001F30
:1023B00004800C48001F008840F001000949091FF3
:1023C000088008481038008840F00100054910399D
:1023D000088002231D2203210120FEF7FBF870BDB7
:1023E0007047000010040040D0020020D4020020FA
:1023F000D80200200010024010B500F0BBF810BD5C
:1024000070B50446002600F0CFF82546E11704EB2E
:1024100011610912A02202EB4101C8B200F078F963
:1024200000F005F9E11704EB11610912A4EB012199
:10243000C8B200F06DF900F0FAF800F0B5F8A1208C
:1024400000F066F900F0F3F8002000F091F906467C
:1024500000F0CCF8304670BD70B504460E4600F072
:10246000A3F82546E11704EB11610912A02202EB43
:102470004101C8B200F04CF900F0D9F8E11704EBC3
:1024800011610912A4EB0121C8B200F041F900F07A
:10249000CEF8304600F03CF900F0C9F800F0A6F89C
:1024A0000A20FEF75FF870BD2DE9F04105460E46A3
:1024B0001746002409E0E20026FA02F2D1B22A19F6
:1024C00090B2FFF7C9FF601CC4B2BC42F3DBBDE8A9
:1024D000F0812DE9F04107460C460026002509E071
:1024E00036023919491B491E88B2FFF789FF064495
:1024F000681CC5B2A542F3DB3046BDE8F08110B5DB
:1025000040F2FF30FFF77CFF0446552C01D100203C
:1025100010BD5521FF20FFF79FFFFF20FFF770FF41
:102520000446552C01D10020F2E70120F0E770B5F8
:1025300006460C46154608E03046721C96B2FFF778
:102540005FFF04F8010B681E85B2002DF4D170BD49
:1025500070B505460C46164606E021782846FFF77A
:102560007BFF681C85B2641C3000A6F101018EB2AD
:10257000F3D170BD9748806940F0080095498861A3
:102580009548006820F07F4093490860084600683D
:1025900040F04C50086090480C30006840F44060B7
:1025A0008D490C310860704710B58B48006820F0E9
:1025B0007040894908600846006840F04050086053
:1025C0000120864908608649C1F898014FF004004F
:1025D000FDF7ADFF0020814908604FF00400FDF7D2
:1025E000A6FF00207E49C1F8980110BD10B57A48B9
:1025F000006820F07040784908600846006840F0A4
:10260000405008600020774908607549C1F89C0176
:102610004FF00400FDF78BFF0120724908607049FC
:10262000C1F89C014FF00400FDF781FF10BD10B50B
:1026300000246948006820F0704067490860084637
:10264000006840F000400860012064490860FDF720
:102650006EFF01206249C1F89801FDF768FF07E0AD
:10266000601CC4B2FA2C03DDFFF7C0FF012010BDCF
:102670005D4800680028F3D15A49086000BFF6E7BA
:1026800010B50020574908605348006820F070409A
:10269000514908600846006840F0405008604FF01B
:1026A00000004F49C1F89C014FF00200FDF73FFFC9
:1026B00001204C4908604FF00200FDF738FF002070
:1026C0004749C1F8980110BD10B500204549086080
:1026D0004148006820F070403F49086008460068A3
:1026E00040F0405008604FF001003D49C1F89C01A6
:1026F0004FF00200FDF71BFF01203A4908604FF040
:102700000200FDF714FF00203549C1F8980110BD03
:1027100070B504463048006820F070402E490860CB
:102720000846006840F04050086000202D490860CD
:1027300005461AE0E009294908604FEA44604FEA7B
:1027400010644FF00200FDF7F2FE01202449C1F8A9
:1027500098010220FDF7EBFE0020224908604FF0AF
:102760000200FDF7E4FE681CC5B2082DE2DB70BD77
:1027700070B5054600241848006820F070401649DE
:1027800008600846006840F000400860002616E037
:102790000020144908604FF00200FDF7C8FE012038
:1027A0000F49C1F898016006040E0F48006808B18F
:1027B000601CC4B20120FDF7BAFE701CC6B2082E20
:1027C000E6DB15B9FFF780FF01E0FFF759FF204670
:1027D00070BD000000100240000C01409C812142AD
:1027E00000802142988121421C8121422DE9F04143
:1027F00004460F4616461D461948406940F0010040
:10280000174948610520FDF7ADFEA760E660154851
:102810000580656000202060206840F01000206086
:102820002068206020682060206840F080002060E0
:102830002068206020682060206840F4805020607C
:1028400020682060BDE8F081016821F0010101608D
:10285000044909884160016841F001010160704745
:1028600000100240DC0200201CB50C46064B7B44E5
:1028700069460090204600F0E6F8044600206946CC
:1028800000F0F4F820461CBDFB01000010B5431C0D
:1028900002E010F8011B71B18107FAD14FF001324B
:1028A00002C88C1A8C4314EAC211F9D0C01A0A0665
:1028B00003D0C01E10BDC01A10BD0A0401D0801E76
:1028C00010BD0902FCD0401E10BD70477047704714
:1028D00070B5044685690068C10601D5302600E060
:1028E0002026C00708D070BDD4E9012130469047AA
:1028F000206A00F1010020626D1EF5D570BD70B533
:10290000044685690078C00708D170BDD4E901216B
:1029100020209047206A00F1010020626D1EF5D54D
:1029200070BD09684A0501D540B27047C905FCD59C
:1029300000B2704709684A0501D5C0B27047C905A1
:10294000FCD580B2704770B50C460546012A05D00B
:102950002878800600D5EA69002302E0012305E01B
:102960005B1C934202D2E05C0028F9D1A869E6180A
:10297000C01AA861286A184428622846FFF7A8FFF1
:1029800004E0D5E9012114F8010B9047B442F8D3D3
:102990002846FFF7B4FF70BD2DE9F041064600243C
:1029A00010687529314616A511D0FFF7BAFF002827
:1029B00003DAC0F1000013A507E031688A0701D5EA
:1029C00011A502E0490704D510A5012401E0FFF795
:1029D000B1FF00210A2306F1240707E0B0FBF3F260
:1029E00003FB1200303078541046491C0028F5D102
:1029F00023462A463046BDE8F04100F06CBA00009C
:102A0000000000002D0000002B000000200000004E
:102A100011680268006A530501D508700BE0D30500
:102A200001D5088007E0130603D5C217C1E90002EB
:102A300001E05206086001207047000001694A1C4D
:102A400002610878704700B58FB0CDE901310021EF
:102A5000059105497944CDE903101146684600F017
:102A60002FF90FB000BD0000E5FFFFFF0A6802F874
:102A7000010B0A60704700002DE9FF5F15468A468A
:102A80000446DFF8AC80F8440027D8E900103E4641
:102A9000CDE9001011E03AF816106A4602A800F0DD
:102AA000B2FC411C07D02178890603D5E2693918A8
:102AB00091420ED8074406F101062078800602D51F
:102AC000E069B84205DDAE42E5DB3AF816000028C1
:102AD000E1D1A069C01BA0612046FFF7F9FED8E94B
:102AE0000010CDE90010002016E03AF818106A46F0
:102AF00002A800F088FC8146401C0BD000250DF197
:102B0000080B05E0D4E901211BF8050090476D1C76
:102B10004D45F7D308F10100B0428046E5DB206A5D
:102B2000384420622046FFF7EAFEBDE8FF9F000020
:102B30006A2000002DE9F0418046D21D22F00702F4
:102B40000025D2E90002F52914A612D0002A06DADF
:102B50000023D0EB030063EB020211A608E0D8F8D3
:102B600000108B0701D50FA602E0490701D50EA67C
:102B700001251146002408F1240704E000F066F95D
:102B800030323A55641C50EA0102F7D12B463246E6
:102B900021464046BDE8F04100F09DB9000000002C
:102BA0002D0000002B0000002000000030B40021A8
:102BB00000F124040CE002F0070505F130054FEAAE
:102BC000D20242EA4372655401F101014FEAD30394
:102BD00052EA0305EFD10468002310A2250708D5A7
:102BE00004F020040C4304D0C46901230CA2641E29
:102BF000C46130BC00F06FB910B5044621461068BE
:102C0000FFF798FE02462046BDE810400023CDE7BE
:102C1000D21D22F00701D1E90023C7E70000000020
:102C200030000000F0B40D460188090502D5234CA0
:102C30007C4402E0214C7C440E34002100F1240647
:102C40000BE002F00F074FEA1212E75D42EA03724F
:102C50004FEA1313775401F1010152EA0307F0D14F
:102C600002780023120704D5702D06D009B1113463
:102C700002232246F0BC00F02EB910340123F8E7FD
:102C800070B504460D4621461068FFF753FE024614
:102C900029462046BDE870400023C3E7D21D22F03C
:102CA0000703D3E90023BDE70368126843F020035C
:102CB00003600823C3610023B4E70000C81E0000BE
:102CC0002DE9F05F894604464FF0000ADFF878B13D
:102CD000FB44C0F820A02046E1688847002875D052
:102CE000252806D0D4E901219047206A401C2062A3
:102CF000F1E700265F462046E16888472028054620
:102D000008DB312D06D207EB050010F8200C08B1C6
:102D10000643F0E7B00701D526F00406C4F81CA06E
:102D20000027C4F818A02A2D09D0284601F08EF8F3
:102D300038B304EB8708303DC8F8185019E059F84B
:102D4000041B204604EB87029161E1688847012F4C
:102D5000054618D1E069002820DA26F020061DE09B
:102D6000D8F8180000EB800005EB40003038C8F8B8
:102D700018002046E1688847054601F067F80028FA
:102D8000EED1012F0AD02E2D08D12046E1688847C8
:102D90007F1C0546022F46F02006C4DBA0690028F0
:102DA00003DA404246F00106A061F00701D026F0A8
:102DB00010066C2D0BD0682D09D04C2D39D06A2D02
:102DC00035D0742D35D07A2D33D016E038E0E16857
:102DD0002F4620468847B842054609D16C2F26D099
:102DE0004FF48060E168064320468847054604E0CA
:102DF0006C2F1AD04FF4807006430DB3A5F141003B
:102E0000192802D8203546F400664A46294620464D
:102E100026604E46FDF7E6F980B101280BD0F61D7D
:102E200026F0070000F1080955E74020E4E780207C
:102E3000D8E70020D6E706F104094CE7284651E719
:102E4000206ABDE8F09F0000501E000030B5B0F1D0
:102E50000A024FEA900E71F100034EEA817EB0EB58
:102E60000E0061EB91014FEA101E4EEA017E10EB5D
:102E70000E0041EB11114FEA102E4EEA016E10EBDD
:102E80000E0041EB11214FEA104E4EEA014E10EBBD
:102E90000E0041EB1141401841F100014FEAD00012
:102EA00040EA41704FEAD10110EB80054FEA8104FE
:102EB00044EA907444EB01046D1944EB0404521B82
:102EC000A3414FF0000348BF0A3200D530BD401C7B
:102ED00041F1000130BD2DE9F0470D46994692467B
:102EE000044600F124080168880604D5E06921F051
:102EF0001001216000E00120A84202DDA0EB0507DF
:102F000000E00027A16907EB050202EB0900A1EB35
:102F10000000A0612078C00602D42046FFF7D8FC4C
:102F2000002608E0D4E901211AF806009047206A3B
:102F3000401C761C20624E45F4DB2078C0060AD582
:102F40002046FFF7C5FC06E0D4E901213020904778
:102F5000206A401C2062381EA7F10107F4DC07E05C
:102F6000D4E9012118F805009047206A401C20622E
:102F7000281EA5F10105F3DC2046FFF7C0FC2078F0
:102F8000000602D50220BDE8F0870120FBE770476C
:102F90002DE9FF4F0C461E464FF0FF378BB0D2E9AC
:102FA0000001DDF860800A908A46C1F30A5505B930
:102FB0003D46002108464FF00000BAF1000F00F432
:102FC000400005DA00EB80004FF4400101EA5000B8
:102FD0004FEA9059B9F1010F00DDB9460A9850EA5D
:102FE0004A000ED044F61050A5F2FF3545432F1489
:102FF000B8F1000F1ED07542291E1EDDC9F1000276
:103000001CE0B8F1010F4FF0000001D0302103E0C7
:10301000F24305E02154401CB042FBDB3046002265
:10302000002121540B99C1F80880C1E900200FB09C
:10303000BDE8F08FBD1B6D1CDEE74A4600DA694231
:1030400006A800F071FA06AB07CB03AB07C35046E6
:103050000A9900F02CFB8DE80700A0F500501F38FE
:1030600000900398002D09DD42F21F014A460844F2
:1030700003A90390684600F08BFD08E0A0F500501E
:103080004A461F3803A90390684600F095FD8DE875
:1030900007000004000C03D04FF0FF30410800E0AF
:1030A0001046B8F1000F03D00022009215461FE031
:1030B000751E06D4FFF7CAFE02F1300262556D1E7E
:1030C000F8D5B3460122084302D000227F1C04E059
:1030D0002078302801D100227F1E002A099787D04E
:1030E0001DE0112D07DAFFF7B1FE303262556D1C7D
:1030F00050EA0102F5D108430FD10021681E05E016
:10310000235C625C6354491C2254401E8142F7DBFD
:10311000AB46A81B401E099001E0009848B1002072
:1031200004F80B000B98099AC0F80880C0E9002B3E
:103130007DE711264FF000085AE72DE9F04F884649
:103140000446D21D22F0070191B0D1E90001CDE97A
:103150000A0100F067FE02460B98C00F01D02D2037
:1031600007E02068810701D52B2002E0202101EA39
:10317000C000032A099001D0072A05DB0346414617
:10318000204600F091F90FE12078800601D5E06932
:1031900000E00620B8F1650F814606D0B8F1660F51
:1031A00018D0B8F1670F72D132E00020B9F1110FD9
:1031B000009001DB112301E009F101030AAA01A932
:1031C0000CA8FFF7E5FEDDE90C70002609F101050A
:1031D000834648E001204B4600904FF000470AAA82
:1031E00001A90CA8FFF7D4FEDDE90DB00C995D46EE
:1031F000002618B909F1010001EB0005B9EB050043
:1032000003D4C0F1FF3609F10105A5EB09002BE05D
:10321000B9F1010F01DA4FF001090020B9F1110FE6
:103220000090484601DD112300E003460AAA01A9E7
:103230000CA8FFF7ADFEDDE90C704D460026834675
:10324000207800070AD4AB4500DA5D4601A8012DBD
:1032500004DD411911F8011C302907D04F4502DA6D
:1032600017F1040F04DA0120824610E06D1EEEE72C
:10327000002F02DCED1B3E4403E0781CA84200DD79
:103280000546A7EB060000F1010A4FF00047207841
:10329000000703D4AA4501DB4FF0FF3A0021B7F144
:1032A000004F0DF143088DF8431023D002202B234B
:1032B000002F01DA7F422D234FF00A0C011EA0F1EE
:1032C000010000DC4FB197FBFCF10CFB11720F46C3
:1032D00002F1300208F8012DF0E7A8F101000370B7
:1032E0002188090501D5452100E06521A0F10108EB
:1032F00000F8011C09980FA9A1EB080707F10707BF
:1033000000B1012000EB050101EBEA70A16938442E
:10331000A1EB0000A0F10100A0612078C00602D45A
:103320002046FFF7D5FA099830B1D4E9012190473A
:10333000206A00F1010020622078C00620D52046D6
:10334000FFF7C6FA1CE0002E04DBB34502DD01A83E
:10335000805D00E03020D4E901219047206A761C8E
:10336000401CBAF1010A20620AD100F099F8C06845
:103370000168405CD4E901219047206A401C20622A
:10338000281EA5F10105DEDC07E0D4E9012118F8CB
:10339000010B9047206A401C2062381EA7F10107EC
:1033A000F3DC2046FFF7ABFA022011B040E610B57F
:1033B000436913B1AFF3008001E0FFF7C4FA0120C5
:1033C00010BD127800F124010A7000224A70012217
:1033D000EDE711684FF0FF32E9E710B5436913B12B
:1033E000AFF3008001E0FFF747FB012010BD12881A
:1033F00000F1240182840022C2840122EDE71168D9
:103400004FF0FF32E9E770B516460C46054600F06E
:103410003FF8036893F80101012806D0FF2C0FD86C
:10342000185D68B101202C7070BDD3F807013246D9
:10343000214603442846BDE8704003F207131847AD
:103440004FF0FF3070BD754600F0E6F8AE4605005F
:103450006946534620F00700854618B020B5FCF7B2
:1034600043FFBDE820404FF000064FF000074FF04B
:1034700000084FF0000B21F00701AC46ACE8C00992
:10348000ACE8C009ACE8C009ACE8C0098D4670479B
:1034900010B500F005F8001D10BD00BFED090000DB
:1034A00000487047101C00202DE9F0411F460446DB
:1034B00003260168072A01F4006004DB08B116A5A1
:1034C00005E016A503E008B115A500E015A521F05B
:1034D00010002060A069C01EA0610FB1401EA06155
:1034E0002046FFF7F5F94FB1D4E90121384690475E
:1034F000206A401C2062C01C206206E0206AFAE7B5
:10350000D4E9012115F8010B9047761EF8D2204628
:10351000FFF7F5F9BDE8F0814E414E006E616E0097
:10352000494E4600696E66002DE9F0478146164611
:103530008AB035487844D0E9002380680092CDE90C
:103540000130314878440C38D0E9022300690392F5
:103550004FF03702CDE9043041F69B30014491FB36
:10356000F2F0A0F1800502FB10141B3C02D564426E
:10357000012000E00020DFF890A080460027FA44F8
:10358000AAF1C60A0DE0E00709D03246684607EB0B
:1035900047010AEB810100F00FFB8DE80700641082
:1035A0007F1C002CEFD1184F7F44B43F17E0E80791
:1035B00013D007EB04100DF1180A90E80E00AAE8EA
:1035C0000E00C068F04201D198190890324606A951
:1035D00003A800F0F1FA03AB07C36D10641C002DC3
:1035E000E5D132466946B8F1000F03A802D000F0D9
:1035F000CFFA01E000F0E0FAC9E90001C9F80820BB
:103600000AB0BDE8F08700007C1600000446AFF366
:1036100000802046FCF749FE00487047F01B002060
:103620004FF0013C50F8042B51F8043B9A4221D151
:10363000A2EB0C03934313EACC1317D150F8042BDD
:1036400051F8043B9A4215D1A2EB0C03934313EAC1
:10365000CC130BD150F8042B51F8043B9A4209D1FA
:10366000A2EB0C03934313EACC13DBD04FF0000022
:10367000704700BFD01A01BAB1FA81F101F0180108
:1036800022FA01F0CB40C1F12001DBB2C0B2C01A76
:103690002CFA01F3D11A914311EAC311E6D1704714
:1036A00001491820ABBEFEE72600020070475FEA22
:1036B000400C08BF91F0000F4FEA8C234FEAC12263
:1036C00043EA51514FEA1C5018BF00F5F0404FEA51
:1036D000300018BF41F000415FEA6C5C00F02980C7
:1036E000BCF1FF3F08BF40F080407047130C06BF9D
:1036F00012044FF0100C4FF0000C130E04BF120216
:103700000CF1080C130F04BF12010CF1040C930F01
:1037100004BF92000CF1020CD30F04BF52000CF155
:10372000010C11464FF00002A0F11F00A0EB0C00AD
:10373000704711F0004F08BF704731F000413FF46F
:10374000D5AF0B0C06BF09044FF0100C4FF0000C66
:103750000B0E04BF09020CF1080C0B0F04BF09018A
:103760000CF1040C8B0F04BF89000CF1020CCB0F81
:1037700004BF49000CF1010CCCF12003A0EB0C00BC
:1037800022FA03F302FA0CF241EA030100F101000C
:10379000704720F07F4C80EA030023F07F47ACEBBA
:1037A000070303F57C5300F0004003F1FF032DE90C
:1037B00080494FEA154B09B44FEA144325EA0B4EF2
:1037C00024EA03480FF2042606EB132749083E7843
:1037D0005FEA320203FB0667C7F5000707FB06F640
:1037E0004FEA54374FEAD64606F1020607FB066C4D
:1037F000CCF1005C4FEA1C472CEA074C07FB06F4AF
:103800000CFB06F504EB15464FEA961634BF002074
:103810004FF000404FEAD13706FB07FC4FEA1C4C43
:103820000CFB0BF7D21B03FB0CF761EB07010CFB46
:103830000EF7B0EB074072EB17420CFB08F734BFF2
:10384000A2EB0742B2EB074261EB17414FEA0C448F
:103850004FEA910706FB07FC4FEA1C4C0CFB0BF7E9
:10386000B0EBC74072EB573203FB0CF734BFA2EB4F
:10387000C742B2EBC74261EB57310CFB0EF7B0EB1E
:10388000C70072EB57720CFB08F734BFA2EBC702FC
:10389000B2EBC70261EB5771039F4FEA816141EAC6
:1038A000921104EBCC044FEAD1374FEA826206FB57
:1038B00007FC42EA90124FEA80604FEA1C4C0CFB76
:1038C0000BF7D21B03FB0CF761EB07010CFB0EF7A8
:1038D000B0EB074072EB17420CFB08F734BFA2EBCA
:1038E0000742B2EB074261EB17414FEA8C554FEAB2
:1038F000910704EB9C2406FB07FC4FEA1C4C0CFBD5
:103900000BF7B0EBC74072EB573203FB0CF734BF39
:10391000A2EBC742B2EBC74261EB57310CFB0EF78B
:10392000B0EBC70072EB57720CFB08F734BFA2EB89
:10393000C702B2EBC70261EB577115EB4C254FEA9A
:10394000816141EA92114FEA82624FEAD13742EA3D
:10395000901206FB07FC44F100044FEA80604FEA36
:103960001C4C0CFB0BF7D21B03FB0CF761EB0701A4
:103970000CFB0EF7B0EB074072EB17420CFB08F79D
:1039800034BFA2EB0742B2EB074261EB174115EBE4
:103990001C154FEA813141EA92414FEA823242EAF4
:1039A00090424FEA80304FEA0C7644F1000448EA36
:1039B00003434EEA0B484FF0000EB2EB080C71EBDC
:1039C000030724BF624639464EEB0E0E4FF0000B44
:1039D0000018524149414BEB0B0BB2EB080C71EB59
:1039E00003077BF1000B24BF624639464EEB0E0EF7
:1039F0004FF0000B0018524149414BEB0B0BB2EB5F
:103A0000080C71EB03077BF1000B24BF62463946BB
:103A10004EEB0E0E51EA020718BF46F0010616EBF8
:103A20000E7655F1000254F1000103D5BDE889017D
:103A3000BDE80088BDE88901BDE80048B6195241DB
:103A400041EB0101A3F10103704780807F7E7D7C03
:103A50007B7A7978777676757473727171706F6E20
:103A60006E6D6C6C6B6A6A696868676666656464CB
:103A7000636362616160605F5F5E5E5D5D5C5C5B55
:103A80005B5A5A59595858575756565555555454C4
:103A9000535352525251515050504F4F4F4E4E4D22
:103AA0004D4D4C4C4C4B4B4B4A4A4A49494948486E
:103AB00048474747474646464545454444444443AE
:103AC00043434342424242414141002B26D47700C6
:103AD00021D01CB54FEA370703B44FF010004FF068
:103AE00010014FF000000FBCBDE810400BF1010BBE
:103AF000BBF1010F08BF5FEA170722BF12F10102F5
:103B000011F101014FF0004143F1000300F00040CA
:103B100043EA00007047F9D35708DAE746EA064659
:103B200013F1400F4FEA16461FDD13F1200FDFBFE0
:103B300016430A46002120335B42C8D0C3F1200758
:103B400046EA064602FA07F74FEA164646EA07062D
:103B5000C3F1200722FA03F201FA07F721FA03F171
:103B60004FF0000342EA0702B1E746EA020646EADE
:103B700006464FEA164646EA0106BCBF46EA064636
:103B8000360C4FF000034FF000024FF000019EE7AB
:103B90002DE9C048934630B491E8380007C831EAAF
:103BA000400C48BF34EA430C03D5FFF7F2FDFFF7A2
:103BB0008CFFF0BCBDE800882DE9C048934630B4C6
:103BC00091E8380007C810F0804F08BF13F0804F0D
:103BD00003D100F005F8FFF778FFF0BCBDE80088DE
:103BE00020F07F4780EA030023F07F4C07EB0C03B3
:103BF000A3F57C5300F00040A3F1FE0392F0000F08
:103C000000F0B38095F0000F00F077802DE90149B6
:103C10004FEA11404FEA144621EA004800FB06FC37
:103C200024EA064708FB06F607FB08F800FB07F73F
:103C300018EB06484CEB164C4FEA124B18EB0748B2
:103C40004FEA15464CEB174022EA0B4E0BFB06FCE5
:103C500025EA06470EFB06F607FB0EFE0BFB07F7F1
:103C60001EEB064E4CEB164C4FF000061EEB074EBB
:103C70004CEB174B18EB0B0840F1000018EB0E0B48
:103C800058EB000840F100008F1A4FF000013CBFD4
:103C9000C943661B14BFB5EB040C00213CBFC943EC
:103CA000F61B4FEA17444EEA8E0E27EA04454FEA08
:103CB0001C4704FB07622CEA074C05FB07F70CFBCB
:103CC00005F604FB0CFC16EB074642EB174216EB1D
:103CD0000C4642EB1C421BEB060658EB020241412C
:103CE00046EA9E0601D5BDE80189B619524141EB6D
:103CF0000101A3F10103BDE801894FEA14454FEA30
:103D0000114724EA054621EA074C05FB07F406FBA8
:103D100007F70CFB06F105FB0CFC11EB074144EB2C
:103D200017444FEA124711EB0C4144EB1C4422EAC2
:103D3000074C05FB07F206FB07F70CFB06F605FB35
:103D40000CFC16EB074642EB174216EB0C4642EB17
:103D50001C456A1854F1000148BF7047B61952411A
:103D600041EB0101A3F10103704795F0000F37D03B
:103D70004FEA11424FEA144721EA024624EA074C6F
:103D800002FB07F106FB07F70CFB06F402FB0CFC39
:103D900014EB074441EB17414FEA154714EB0C4471
:103DA00041EB1C4125EA074C02FB07F506FB07F730
:103DB0000CFB06F602FB0CFC16EB074645EB174521
:103DC00016EB0C4645EB1C42121951F1000148BF9D
:103DD0007047B619524141EB0101A3F1010370474D
:103DE0004FEA14454FEA114724EA054621EA074CF9
:103DF00005FB07F106FB07F70CFB06F24FF0000688
:103E000005FB0CFC12EB074241EB174112EB0C4295
:103E100051EB1C4148BF7047921841EB0101A3F1DF
:103E200001037047490050EAC12018BF04204A0D21
:103E300018BF40F0010040F2FF72B2EB515F08BFC3
:103E400040F00200012808BF0520704730380A28DA
:103E500001D20120704700207047000010B50029F2
:103E60000AD00878002807D005487844FFF7D8FB27
:103E7000002801D0002010BD0248784410BD000089
:103E8000820D00007A0D000010B500290AD00878D4
:103E9000002807D005487844FFF7C2FB002801D06E
:103EA000002010BD0248784410BD0000720D0000D3
:103EB0006A0D000021F00042A2F16052B2F5801FAD
:103EC00001F0004328BFD2F17F6C0BD95FEA001CE0
:103ED00043EAC20242EB507018BF704728BF20F07F
:103EE00001007047B2F5801FBCBF184670474FEA0B
:103EF000410C1CF5001F02D2084600F074BD70B5DD
:103F000000F074F900000089FFF7F6BF4FF00040A1
:103F1000A0F580007047000010B591EA030F48BF7C
:103F200083F0004300F1BE81841A71EB030C05D2CB
:103F3000121943EB0C03001B61EB0C01DFF824E1C9
:103F40004FEA1154A4EB135C1EEA430F18BF9EEA1C
:103F5000445F73D023EA0E03DCF1200E21EA045102
:103F600043F4801332D322FA0CFE10EB0E0023FA36
:103F70000CFE41EB0E01CCF1200E03FA0EFE10EB0D
:103F80000E0051F10001B1F5801FCCF1200E32D2AC
:103F900001EB045112FA0EF2BDE8104058BF704711
:103FA000401C38BF5FEA420218BF7047002814BFA8
:103FB00020F0010041F100014FEA410313F5001F19
:103FC00038BF7047A1F1C04100F05EB9012A43EB50
:103FD0000302ACF1200CDCF11F0E32BF4FF0000EDB
:103FE00023FA0CF310EB030041EB0451B4EB115F27
:103FF000D0D0A1EB045101F5801149085FEA3000EF
:1040000001EB04510ED350F1000038BF12FA0EFE3E
:1040100008D1BDE81040C9E7401C38BF5FEA420242
:10402000CAD1C3E7BDE810404FEA410313F5001FB2
:1040300038BF7047A1F1C04100F026B99EEA445F45
:1040400008D011EA5E0FBDE8104004BF01F0004146
:1040500000207047BDE8104070B500F0C7F800BF01
:1040600064FBBE3E0000E0FF10F0004248BF40424B
:10407000B0FA80F310FA03F10AD0C3F11D0303F57F
:1040800080634FEA415002EB035202EBD1217047AB
:104090004FF0000070470000DFF848C170B51CEA1F
:1040A000111E1EBF1CEA13159EEA0C0F95EA0C0F99
:1040B00000F06F8081EA030423EA4C134EEAD47EB9
:1040C00021EA4C1141F4801143F48013AE44A1FB6A
:1040D000024CA0FB0365AEF17F7E361955EB0C0553
:1040E000A1FB034C4CF10003A0FB021C16EB0C06D9
:1040F000654153F10003094218BF46F0010613F46D
:10410000007F0BD14FEA03314FEA0530340341EA17
:10411000155140EA16506FF003020AE04FEAC3213E
:104120004FEAC520F40241EA555140EA56506FF07B
:10413000020202EB2E4201EB025585EACE710AD053
:104140005FEA440C18BF24F0004450F1000041F134
:10415000000120EAD47040F2FE7C624500D270BDBE
:10416000A84214BF4FF080444FF04044002E08BFD7
:104170000024BEF1806FA8BFA1F1C041BDE870402E
:1041800080F282804FF0000001F1C04101F0004157
:1041900070479EEA0C0F0CEA131518BF95EA0C0F36
:1041A00006D04FF0000081EA030E0EF0004170BD12
:1041B00000F01CF88900013E00F007B800F009B8D3
:1041C0004FEA430C5FEA5C5C08D081EA030100F02F
:1041D0005BB84FEA410C5FEA5C5CF6D14FF000003F
:1041E000014970470000FF070000F87F0EF1020E42
:1041F0002EF0030E5EF8046B364205D4012A43EB21
:10420000030515F5001F12D8012841EB010C1CF520
:10421000001F0CD80ED14FEAD17C15F5001F0CEB16
:104220004C0C0CF1020C08BF4CEBD37C04E04FF0BB
:10423000080C01E04FEAD37C0CEB4C0526FA05F69E
:1042400006F00706B6F1040C06D20EEB860CBDE8AC
:1042500070404CF0010C6047DFE80CF0090B0202E3
:104260004FF000414FF00000A1F5002170BD19464C
:104270001046012851EB010418BFD4F5001484BF87
:10428000002001F0004170BD0808A0F500114FEAC0
:104290003101704710B591EA030F48BF83F0004326
:1042A0003FF542AE841A71EB030C07D212198CF061
:1042B000004C43EB0C03001B61EB0C01DFF8A4E1A5
:1042C0004FEA1154A4EB135C1EEA430F18BF9EEA99
:1042D000445F00F0B08023EA6E03524221EA0451A9
:1042E000C3EB6E0338BF5B1EDCF1200E25D322FA30
:1042F0000CFE10EB0E0043FA0CFE41EB0E01CCF16C
:10430000200E03FA0EFE10EB0E0051F10001CCF16D
:10431000200E29D412FA0EF201EB0451BDE8104030
:1043200058BF7047401C1CBFB2F1004F70470028B7
:104330000CBF491C20F00100704712EB020E43EB4A
:10434000030218BF4FF0010E4EEA4202ACF1200CFE
:10435000DCF11E0E54D943FA0CFE10EB0E0051F1A5
:10436000FF31CCF11E0ED5D50EF1010E12FA0EFE64
:10437000404141EB010101EB445C5FEA5C5C10D918
:1043800010EBDE7001EB045138BFBEF1004FBDE809
:10439000104018BF704700280CBF491C20F00100D6
:1043A000704730D24FEAD42C11F5001124F4006488
:1043B0001BD0B1FA81F20B3AA41AA41ED2F1200349
:1043C000914030FA03F31943904001EBCC71002C7B
:1043D00001EB0451BDE81040A8BF704701F1C04196
:1043E0004FF0000001F000417047B0FA80F310FA7E
:1043F00003F100D110BDE41A173C4805C90AE4E7EF
:1044000001EB045110BD491001EB0451BDE810400F
:104410004FEA300002E04FF0000170474A0008BF49
:104420000042F8D0B2F5001F28BF704701F00041EC
:104430004FF0000070479EEA445F07D011EA5E0F1C
:10444000BDE8104004BF002100207047BDE81040C7
:1044500070B5FFF7CBFE00BF40DFF63E83F00041B2
:10446000104670470000E0FF43004FEAD30C4FEACC
:104470003C0C43401FBF40070CF1605113F0FE4F4E
:1044800070471CF0006F03D100200CF00041704712
:104490000CF0004343EA507010B540EACC0000F045
:1044A0005CFA00BF000000924FEA0001FFF7ECBE8B
:1044B0004FF000414FF00000A1F5002170470000CF
:1044C00090EA010F48BF81F0004100F1A282421A38
:1044D0003CBF801A89184FEAD0524FF07F4C1CEA3B
:1044E000410FA2EBD15318BF9CEA026F00F03B8052
:1044F0004FF0004C4CEA00204CEA012121FA03FC69
:1045000010EB0C0C1ED202F1FF325FEA1C2040EBD4
:10451000C25038BF70471CF07F0F4FEA400C18BFE5
:10452000BCF17F4F38BF7047C3F12003994008BFEB
:1045300020F00100BCF17F4F38BF7047A0F1C040B0
:1045400000F051BA4FEA3C00000A40EBC25028BFCD
:104550001CF0FF0F4FEA400CE6D018BFBCF17F4FB4
:1045600038BF7047EAE79CEA026F05D010EA5C0F9B
:1045700008BF00F00040704710B500F0EEF900BF32
:1045800064FBBE3E401058BFC0F14040491058BFC8
:10459000C1F140418142EFF3008070474FF47F0C3E
:1045A0001CEAD0121EBF1CEAD11392EA0C0F93EA48
:1045B0000C0F00F0858090EA010F48BF42F4807232
:1045C00040F4000C41F400002CF07F4120F07F40CB
:1045D00000B58142A2EB03020FF2081CACEB504E77
:1045E000C0F100009EF800E04FEA4E0E00FB0EFC0A
:1045F00038BF49004FEA2C1C02F5FA020CFB0EF3FF
:104600004FEACE1E4FEA112C4FEAC1210EEB635E3A
:1046100042EB22420EFB0CFC4FEA1C5300FB031141
:104620004FEA112C4FEA01310EFB0CFC4FEADC4C37
:1046300000FB0C11C14228BF09184CEB03335DF895
:1046400004EB10EB410143EBC250B2F57C0F38BFD5
:10465000704729D512F0F00F1CBF00F1C04000F0E8
:1046600000407047008182838485868788898B8C8F
:104670008D8E8F919293959697999A9C9D9FA0A2CB
:10468000A3A5A7A8AAACAEB0B2B3B5B7B9BCBEC01B
:10469000C2C5C7C9CCCED1D4D7D9DCDFE2E6E9ECBC
:1046A000F0F3F7FAFE0000004FEA400C0CF1807CBA
:1046B000BCF17E4F28BF7047B0F1C04000F093B905
:1046C00090EA010F0CEAD11348BF42F480726245B0
:1046D00038BF634507D213F47F0F16D080EA01007C
:1046E00000F00040704710B500F037F9097EFC3E3D
:1046F00000F005B880EA010000F00040704780EA51
:10470000010000F0004000F06EB912F47F0F04BF0A
:104710000248704780EA010000F065B90000C07FE0
:1047200041000B0ED3F19E0208D950F400034FEA6A
:10473000032323FA02F048BF4042704710B500F04F
:104740000CF900BF49922480002070476FF00042AE
:1047500082EA200070470000C10DD1F19E0206DB05
:104760004FEA002343F0004323FA02F0704700426F
:1047700007D54FEA4001B1F1FE4F02D24FF00000E1
:10478000704710B500F0E9F8499224800020704786
:104790006FEA20007047000010F0004148BF40421F
:1047A000B0FA80F310FA03F2C3F19D030BD051EA83
:1047B000C35101EB1220530638BF704700F10100CE
:1047C00008BF20F001007047B0FA80F310FA03F23E
:1047D000C3F19D030AD0D90501EB1220530638BF5F
:1047E000704700F1010008BF20F001007047000091
:1047F00050EA010C00F113801CF5000F58BFBCF506
:10480000000F01D48842704707D710F5000F58BF3A
:1048100011F5000F15D488427047894270471CF586
:10482000000F04D5BCF5000FF7D5814270474FF05B
:10483000807C1CEB400F38BF1CEB410F01D2814242
:10484000704710B500F089F8922449004FF00050ED
:104850004FF08051FFF796BE4FF47F0C1CEAD01248
:104860001EBF1CEAD11392EA0C0F93EA0C0F00F062
:10487000478090EA010F48BF42F480724FF0004C2D
:104880004CEA00204CEA012102EB0302A0FB0113D9
:10489000A2F50002002918BF43F001035B0028BF06
:1048A0004FEA330342EB22425FEA132C4CEBC25037
:1048B0002EBFBCEB436FB2F57C0F70474FEA036C21
:1048C000BCF1004F08BF20F00100B2F57C0F38BFEB
:1048D00070470BD582F0FF0212F5803FC8BF7047CA
:1048E00000F1C040D8BF00F00040704700F5000C58
:1048F0005FEA4C0C48BF7047B0F1C04000F073B89D
:1049000090EA010F0CEAD11348BF42F4807262456D
:1049100038BF634504D280EA010000F000407047D0
:1049200010B500F01AF800BF8900013E00F007B88A
:1049300000F009B85FEA410C5FEA1C6C08D080EA1D
:10494000010000F050B85FEA400C5FEA1C6CF6D141
:104950004FF00040A0F5800070470EF1020E2EF0DF
:10496000030E5EF8044B244204D44FEA4102B2F134
:104970007F4F11D84FEA4003B3F17F4F0CD80ED1CF
:104980004FEAD07CB2F17F4F0CEB4C0C0CF1020CD7
:1049900008BF4CEBD17C04E04FF0080C01E04FEA7B
:1049A000D17C0CEB4C0324FA03F404F00704B4F1BB
:1049B000040C06D20EEB840CBDE810404CF0010C48
:1049C0006047DFE80CF0070802024FF00040A0F556
:1049D000800010BD0846420018BFD2F1807288BF27
:1049E00000F0004010BDFF2141EAD050C0057047E3
:1049F00080F0004090EA010F7FF569AD81F0004141
:104A000000F007B890EA010F48BF81F000413FF580
:104A10005EAD421A04D882F00042A0EB02001144BD
:104A20004FEAD0524FF07F4C1CEA410FA2EBD1531A
:104A300018BF9CEA026F4AD04FF0004C4CEA0020AD
:104A40004CEA012121FA03FCB0EB0C0C0FD412F05C
:104A5000FE0F36D05FEA4C001DD5001240EBC2506D
:104A600038BF70471CF03F0F18BF70470BE0A2F132
:104A700001025FEA1C2040EBC25038BF70471CF0B7
:104A80007F0F18BF7047C3F12003994014BF401E29
:104A900020F00100704780084FEA122308BF7047DA
:104AA000B0FA80FCA2EB0C02CCF1280C60FA0CF0FE
:104AB00093EA122F04BF00EBC25070474FEAC37055
:104AC0007047130A5FEADC1008BF7047F6E79CEAFC
:104AD000026F04D010EA5C0F08BF0020704710B5C9
:104AE000FFF73BFF40DFF63E81F000407047FEF7E6
:104AF00024BB000000000000000000003031323311
:104B00003435363738394142434445464030580001
:104B10003031323334353637383961626364656633
:104B2000403078000400000800000000000000028F
:104B3000000100001000000002400000000000A082
:104B40000000000005400000000000C80000000058
:104B50000C4000000000409C0000000019400000D4
:104B60000020BCBE0000000034400000BFC91B8E06
:104B700000000004B5400000504BCFD06607E2CFE4
:104B8000010000006C4100003E8251AADFEEA73414
:104B900001000000D9420000DCB5A0E23A301F97C6
:104BA000FFFFFFFFB4450000FD25A0C8E9A3C14FEA
:104BB000FFFFFFFFFF3F000000000080000000003B
:104BC000FF3F00000000008000000000184D0008BA
:104BD00000000020E00200006C010008884E000880
:104BE000E002002070210000C80100081C00000045
:104BF00043000000F8FFFFFF0C0000000E00000063
:104C00000F0000002E000000100100004300000013
:104C1000F8FFFFFF004040404040404040404141DD
:104C20004141414040404040404040404040404081
:104C3000404040404005020202020202020202021B
:104C40000202020202202020202020202020200218
:104C500002020202020290909090909010101010A8
:104C60001010101010101010101010101010101044
:104C700002020202020288888888888808080808D8
:104C800008080808080808080808080808080808A4
:104C900002020202400000000000000000000000CC
:104CA0000000000000000000000000000000000004
:104CB00000000000000000000000000000000000F4
:104CC00000000000000000000000000000000000E4
:104CD00000000000000000000000000000000000D4
:104CE00000000000000000000000000000000000C4
:104CF00000000000000000000000000000000000B4
:104D000000000000000000000000000000000000A3
:104D10000000000000000000411201480D53495AF4
:104D20004520313030206D6D2C0728080D0A474191
:104D3000502032114816300D0A434C530D0A424F91
:104D4000582032302C3230302C3738041A35163B8C
:104D5000415216780937362C3736302C3412DC3372
:104D6000353212DC34323812EC35303412295A899B
:104D7000123C3339385B1D342C333013280A50551C
:104D800054424D502031353B180A2C226C6F6E670F
:104D90006C692E137A221C791BCB676F191A33A505
:104DA00019610E1122706968611BF80A39362C22CC
:104DB00067756967651BD80B3337322C2264656EC3
:104DC000676A6B191C1F3434382C227487FC736893
:104DD000751D1C35323439DB6174532B34316F1936
:104DE000380D11736861731C1A33F0198B0B126143
:104DF0006E1D2A34DD1E6D616F7A687509101F1BE8
:104E00003532582D6A696E6720591F1129231809F8
:104E100052494E5420312C310FD11406EE20122865
:104E20001281420515FFFCFFFF3E7E303330320613
:104E30001231191D1A6402280A03C9CFB4ABB3C9D1
:104E4000B9A62169142809CDF8C2E7B4EDCEF31450
:104E500069201134EEB110AA1C1C59137DC1ACBDE0
:104E6000D34319131202EA05261913A926613C3906
:104E7000392D0329AC3120096666A63FCDCC4C3EC6
:084E80000423204002000000A1
:0400000508000131BD
:00000001FF
